{
  "_format": "hh-sol-artifact-1",
  "contractName": "AIModelNFT",
  "sourceName": "contracts/core/AIModelNFT.sol",
  "abi": [
    {
      "inputs": [],
      "stateMutability": "nonpayable",
      "type": "constructor"
    },
    {
      "inputs": [
        {
          "internalType": "address",
          "name": "sender",
          "type": "address"
        },
        {
          "internalType": "uint256",
          "name": "tokenId",
          "type": "uint256"
        },
        {
          "internalType": "address",
          "name": "owner",
          "type": "address"
        }
      ],
      "name": "ERC721IncorrectOwner",
      "type": "error"
    },
    {
      "inputs": [
        {
          "internalType": "address",
          "name": "operator",
          "type": "address"
        },
        {
          "internalType": "uint256",
          "name": "tokenId",
          "type": "uint256"
        }
      ],
      "name": "ERC721InsufficientApproval",
      "type": "error"
    },
    {
      "inputs": [
        {
          "internalType": "address",
          "name": "approver",
          "type": "address"
        }
      ],
      "name": "ERC721InvalidApprover",
      "type": "error"
    },
    {
      "inputs": [
        {
          "internalType": "address",
          "name": "operator",
          "type": "address"
        }
      ],
      "name": "ERC721InvalidOperator",
      "type": "error"
    },
    {
      "inputs": [
        {
          "internalType": "address",
          "name": "owner",
          "type": "address"
        }
      ],
      "name": "ERC721InvalidOwner",
      "type": "error"
    },
    {
      "inputs": [
        {
          "internalType": "address",
          "name": "receiver",
          "type": "address"
        }
      ],
      "name": "ERC721InvalidReceiver",
      "type": "error"
    },
    {
      "inputs": [
        {
          "internalType": "address",
          "name": "sender",
          "type": "address"
        }
      ],
      "name": "ERC721InvalidSender",
      "type": "error"
    },
    {
      "inputs": [
        {
          "internalType": "uint256",
          "name": "tokenId",
          "type": "uint256"
        }
      ],
      "name": "ERC721NonexistentToken",
      "type": "error"
    },
    {
      "inputs": [],
      "name": "EmptyCID",
      "type": "error"
    },
    {
      "inputs": [],
      "name": "EmptyMetadataURI",
      "type": "error"
    },
    {
      "inputs": [],
      "name": "EmptyVersion",
      "type": "error"
    },
    {
      "inputs": [],
      "name": "MintingPaused",
      "type": "error"
    },
    {
      "inputs": [
        {
          "internalType": "address",
          "name": "owner",
          "type": "address"
        }
      ],
      "name": "OwnableInvalidOwner",
      "type": "error"
    },
    {
      "inputs": [
        {
          "internalType": "address",
          "name": "account",
          "type": "address"
        }
      ],
      "name": "OwnableUnauthorizedAccount",
      "type": "error"
    },
    {
      "inputs": [],
      "name": "ReentrancyGuardReentrantCall",
      "type": "error"
    },
    {
      "inputs": [],
      "name": "ZeroAddress",
      "type": "error"
    },
    {
      "anonymous": false,
      "inputs": [
        {
          "indexed": true,
          "internalType": "address",
          "name": "owner",
          "type": "address"
        },
        {
          "indexed": true,
          "internalType": "address",
          "name": "approved",
          "type": "address"
        },
        {
          "indexed": true,
          "internalType": "uint256",
          "name": "tokenId",
          "type": "uint256"
        }
      ],
      "name": "Approval",
      "type": "event"
    },
    {
      "anonymous": false,
      "inputs": [
        {
          "indexed": true,
          "internalType": "address",
          "name": "owner",
          "type": "address"
        },
        {
          "indexed": true,
          "internalType": "address",
          "name": "operator",
          "type": "address"
        },
        {
          "indexed": false,
          "internalType": "bool",
          "name": "approved",
          "type": "bool"
        }
      ],
      "name": "ApprovalForAll",
      "type": "event"
    },
    {
      "anonymous": false,
      "inputs": [
        {
          "indexed": false,
          "internalType": "uint256",
          "name": "_fromTokenId",
          "type": "uint256"
        },
        {
          "indexed": false,
          "internalType": "uint256",
          "name": "_toTokenId",
          "type": "uint256"
        }
      ],
      "name": "BatchMetadataUpdate",
      "type": "event"
    },
    {
      "anonymous": false,
      "inputs": [
        {
          "indexed": false,
          "internalType": "uint256",
          "name": "_tokenId",
          "type": "uint256"
        }
      ],
      "name": "MetadataUpdate",
      "type": "event"
    },
    {
      "anonymous": false,
      "inputs": [
        {
          "indexed": false,
          "internalType": "bool",
          "name": "paused",
          "type": "bool"
        }
      ],
      "name": "MintingStatusChanged",
      "type": "event"
    },
    {
      "anonymous": false,
      "inputs": [
        {
          "indexed": true,
          "internalType": "uint256",
          "name": "tokenId",
          "type": "uint256"
        },
        {
          "indexed": true,
          "internalType": "address",
          "name": "creator",
          "type": "address"
        },
        {
          "indexed": false,
          "internalType": "string",
          "name": "metadataURI",
          "type": "string"
        },
        {
          "indexed": false,
          "internalType": "string",
          "name": "cid",
          "type": "string"
        },
        {
          "indexed": false,
          "internalType": "string",
          "name": "version",
          "type": "string"
        }
      ],
      "name": "ModelMinted",
      "type": "event"
    },
    {
      "anonymous": false,
      "inputs": [
        {
          "indexed": true,
          "internalType": "address",
          "name": "previousOwner",
          "type": "address"
        },
        {
          "indexed": true,
          "internalType": "address",
          "name": "newOwner",
          "type": "address"
        }
      ],
      "name": "OwnershipTransferred",
      "type": "event"
    },
    {
      "anonymous": false,
      "inputs": [
        {
          "indexed": true,
          "internalType": "address",
          "name": "from",
          "type": "address"
        },
        {
          "indexed": true,
          "internalType": "address",
          "name": "to",
          "type": "address"
        },
        {
          "indexed": true,
          "internalType": "uint256",
          "name": "tokenId",
          "type": "uint256"
        }
      ],
      "name": "Transfer",
      "type": "event"
    },
    {
      "inputs": [
        {
          "internalType": "address",
          "name": "to",
          "type": "address"
        },
        {
          "internalType": "uint256",
          "name": "tokenId",
          "type": "uint256"
        }
      ],
      "name": "approve",
      "outputs": [],
      "stateMutability": "nonpayable",
      "type": "function"
    },
    {
      "inputs": [
        {
          "internalType": "address",
          "name": "owner",
          "type": "address"
        }
      ],
      "name": "balanceOf",
      "outputs": [
        {
          "internalType": "uint256",
          "name": "",
          "type": "uint256"
        }
      ],
      "stateMutability": "view",
      "type": "function"
    },
    {
      "inputs": [
        {
          "internalType": "uint256",
          "name": "tokenId",
          "type": "uint256"
        }
      ],
      "name": "getApproved",
      "outputs": [
        {
          "internalType": "address",
          "name": "",
          "type": "address"
        }
      ],
      "stateMutability": "view",
      "type": "function"
    },
    {
      "inputs": [
        {
          "internalType": "uint256",
          "name": "tokenId",
          "type": "uint256"
        }
      ],
      "name": "getModelData",
      "outputs": [
        {
          "components": [
            {
              "internalType": "string",
              "name": "metadataURI",
              "type": "string"
            },
            {
              "internalType": "string",
              "name": "cid",
              "type": "string"
            },
            {
              "internalType": "address",
              "name": "creator",
              "type": "address"
            },
            {
              "internalType": "string",
              "name": "version",
              "type": "string"
            },
            {
              "internalType": "uint256",
              "name": "mintedAt",
              "type": "uint256"
            }
          ],
          "internalType": "struct AIModelNFT.ModelData",
          "name": "",
          "type": "tuple"
        }
      ],
      "stateMutability": "view",
      "type": "function"
    },
    {
      "inputs": [
        {
          "internalType": "address",
          "name": "owner",
          "type": "address"
        },
        {
          "internalType": "address",
          "name": "operator",
          "type": "address"
        }
      ],
      "name": "isApprovedForAll",
      "outputs": [
        {
          "internalType": "bool",
          "name": "",
          "type": "bool"
        }
      ],
      "stateMutability": "view",
      "type": "function"
    },
    {
      "inputs": [
        {
          "internalType": "address",
          "name": "to",
          "type": "address"
        },
        {
          "internalType": "address",
          "name": "creator",
          "type": "address"
        },
        {
          "internalType": "string",
          "name": "metadataURI",
          "type": "string"
        },
        {
          "internalType": "string",
          "name": "cid",
          "type": "string"
        },
        {
          "internalType": "string",
          "name": "version",
          "type": "string"
        }
      ],
      "name": "mint",
      "outputs": [
        {
          "internalType": "uint256",
          "name": "tokenId",
          "type": "uint256"
        }
      ],
      "stateMutability": "nonpayable",
      "type": "function"
    },
    {
      "inputs": [],
      "name": "mintingPaused",
      "outputs": [
        {
          "internalType": "bool",
          "name": "",
          "type": "bool"
        }
      ],
      "stateMutability": "view",
      "type": "function"
    },
    {
      "inputs": [],
      "name": "name",
      "outputs": [
        {
          "internalType": "string",
          "name": "",
          "type": "string"
        }
      ],
      "stateMutability": "view",
      "type": "function"
    },
    {
      "inputs": [],
      "name": "owner",
      "outputs": [
        {
          "internalType": "address",
          "name": "",
          "type": "address"
        }
      ],
      "stateMutability": "view",
      "type": "function"
    },
    {
      "inputs": [
        {
          "internalType": "uint256",
          "name": "tokenId",
          "type": "uint256"
        }
      ],
      "name": "ownerOf",
      "outputs": [
        {
          "internalType": "address",
          "name": "",
          "type": "address"
        }
      ],
      "stateMutability": "view",
      "type": "function"
    },
    {
      "inputs": [],
      "name": "renounceOwnership",
      "outputs": [],
      "stateMutability": "nonpayable",
      "type": "function"
    },
    {
      "inputs": [
        {
          "internalType": "address",
          "name": "from",
          "type": "address"
        },
        {
          "internalType": "address",
          "name": "to",
          "type": "address"
        },
        {
          "internalType": "uint256",
          "name": "tokenId",
          "type": "uint256"
        }
      ],
      "name": "safeTransferFrom",
      "outputs": [],
      "stateMutability": "nonpayable",
      "type": "function"
    },
    {
      "inputs": [
        {
          "internalType": "address",
          "name": "from",
          "type": "address"
        },
        {
          "internalType": "address",
          "name": "to",
          "type": "address"
        },
        {
          "internalType": "uint256",
          "name": "tokenId",
          "type": "uint256"
        },
        {
          "internalType": "bytes",
          "name": "data",
          "type": "bytes"
        }
      ],
      "name": "safeTransferFrom",
      "outputs": [],
      "stateMutability": "nonpayable",
      "type": "function"
    },
    {
      "inputs": [
        {
          "internalType": "address",
          "name": "operator",
          "type": "address"
        },
        {
          "internalType": "bool",
          "name": "approved",
          "type": "bool"
        }
      ],
      "name": "setApprovalForAll",
      "outputs": [],
      "stateMutability": "nonpayable",
      "type": "function"
    },
    {
      "inputs": [
        {
          "internalType": "bool",
          "name": "paused",
          "type": "bool"
        }
      ],
      "name": "setMintingPaused",
      "outputs": [],
      "stateMutability": "nonpayable",
      "type": "function"
    },
    {
      "inputs": [
        {
          "internalType": "bytes4",
          "name": "interfaceId",
          "type": "bytes4"
        }
      ],
      "name": "supportsInterface",
      "outputs": [
        {
          "internalType": "bool",
          "name": "",
          "type": "bool"
        }
      ],
      "stateMutability": "view",
      "type": "function"
    },
    {
      "inputs": [],
      "name": "symbol",
      "outputs": [
        {
          "internalType": "string",
          "name": "",
          "type": "string"
        }
      ],
      "stateMutability": "view",
      "type": "function"
    },
    {
      "inputs": [
        {
          "internalType": "uint256",
          "name": "tokenId",
          "type": "uint256"
        }
      ],
      "name": "tokenURI",
      "outputs": [
        {
          "internalType": "string",
          "name": "",
          "type": "string"
        }
      ],
      "stateMutability": "view",
      "type": "function"
    },
    {
      "inputs": [],
      "name": "totalMinted",
      "outputs": [
        {
          "internalType": "uint256",
          "name": "",
          "type": "uint256"
        }
      ],
      "stateMutability": "view",
      "type": "function"
    },
    {
      "inputs": [
        {
          "internalType": "address",
          "name": "from",
          "type": "address"
        },
        {
          "internalType": "address",
          "name": "to",
          "type": "address"
        },
        {
          "internalType": "uint256",
          "name": "tokenId",
          "type": "uint256"
        }
      ],
      "name": "transferFrom",
      "outputs": [],
      "stateMutability": "nonpayable",
      "type": "function"
    },
    {
      "inputs": [
        {
          "internalType": "address",
          "name": "newOwner",
          "type": "address"
        }
      ],
      "name": "transferOwnership",
      "outputs": [],
      "stateMutability": "nonpayable",
      "type": "function"
    }
  ],
  "bytecode": "0x6080346200036d576001600160401b0390604090808201838111828210176200028b578252600c81526020926b105248135bd9195b0813919560a21b84830152825193838501858110838211176200028b578452600685526510525353919560d21b818601528251908282116200028b575f54916001948584811c9416801562000362575b838510146200026c578190601f948581116200030f575b508390858311600114620002ab575f926200029f575b50505f19600383901b1c191690851b175f555b85519283116200028b5783548481811c9116801562000280575b828210146200026c5782811162000224575b5080918311600114620001bf5750819293945f92620001b3575b50505f19600383901b1c191690821b1781555b33156200019c5760078054336001600160a01b0319821681179092559251926001600160a01b03167f8be0079c531659141344cd1fd0a4f28419497f9722a3daafe3b4186f6b6457e05f80a3807f9b779b17422d0df92223018b32b4d1fa46e071723d6817e2486d003becc55f0055600855611a2a9081620003728239f35b8151631e4fbdf760e01b81525f6004820152602490fd5b015190505f806200010a565b90601f19831695845f52825f20925f905b8882106200020c5750508385969710620001f3575b505050811b0181556200011d565b01515f1960f88460031b161c191690555f8080620001e5565b808785968294968601518155019501930190620001d0565b845f52815f208380860160051c82019284871062000262575b0160051c019085905b82811062000256575050620000f0565b5f815501859062000246565b925081926200023d565b634e487b7160e01b5f52602260045260245ffd5b90607f1690620000de565b634e487b7160e01b5f52604160045260245ffd5b015190505f80620000b1565b90879350601f198316915f8052855f20925f5b87828210620002f85750508411620002df575b505050811b015f55620000c4565b01515f1960f88460031b161c191690555f8080620002d1565b8385015186558b97909501949384019301620002be565b9091505f8052835f208580850160051c82019286861062000358575b918991869594930160051c01915b828110620003495750506200009b565b5f815585945089910162000339565b925081926200032b565b93607f169362000084565b5f80fdfe6080806040526004361015610012575f80fd5b5f3560e01c90816301ffc9a7146113015750806306fdde031461125a578063081812fc1461121e578063095ea7b31461113d57806323b872dd146111265780632870277d1461072557806342842e0e146106f85780636352211e146106c857806370a0823114610672578063715018a6146106175780638da5cb5b146105ef57806395d89b4114610511578063a22cb46514610452578063a2309ff814610415578063ad13419d146103b3578063b88d4fde14610346578063c87b56dd1461030f578063d363708014610202578063e1a283d6146101e0578063e985e9c51461018e5763f2fde38b14610103575f80fd5b3461018a57602036600319011261018a5761011c6113cc565b61012461187e565b6001600160a01b0390811690811561017257600754826001600160601b0360a01b821617600755167f8be0079c531659141344cd1fd0a4f28419497f9722a3daafe3b4186f6b6457e05f80a3005b604051631e4fbdf760e01b81525f6004820152602490fd5b5f80fd5b3461018a57604036600319011261018a576101a76113cc565b6101af6113e2565b9060018060a01b038091165f52600560205260405f2091165f52602052602060ff60405f2054166040519015158152f35b3461018a575f36600319011261018a57602060ff600954166040519015158152f35b3461018a5760208060031936011261018a5760405160a0916004356102268361145a565b5f608060609485815285858201528260408201528580820152015261024a81611844565b505f52600a815261030460405f2092604051936102668561145a565b61026f8161153a565b855261027d6001820161153a565b90848601918252600180881b03928360028301541693604088019485526102ed6102d760046102ae6003870161153a565b95858c0196875201549860808b01998a526040519b8c9b828d5251918c015260c08b01906113a7565b945194601f1995868b83030160408c01526113a7565b9451169087015251908583030160808601526113a7565b905160a08301520390f35b3461018a57602036600319011261018a5761034261032e600435611792565b6040519182916020835260208301906113a7565b0390f35b3461018a57608036600319011261018a5761035f6113cc565b6103676113e2565b90604435606435926001600160401b03841161018a573660238501121561018a5761039f6103b19436906024816004013591016114cc565b926103ab8383836115dc565b336118aa565b005b3461018a57602036600319011261018a5760043580151580910361018a5760207f41f386d449eec03c1c3b75bbba9c18df70aa19779ff47f68eab4b6a66fb399d4916103fd61187e565b60ff196009541660ff821617600955604051908152a1005b3461018a575f36600319011261018a576008545f19810190811161043e57602090604051908152f35b634e487b7160e01b5f52601160045260245ffd5b3461018a57604036600319011261018a5761046b6113cc565b6024359081151580920361018a5733156104f9576001600160a01b03169081156104e057335f52600560205260405f20825f5260205260405f2060ff1981541660ff83161790556040519081527f17307eab39ab6107e8899845ad3d59bd9653f200f220920489ca2b5937696c3160203392a3005b604051630b61174360e31b815260048101839052602490fd5b60405163a9fbf51f60e01b81525f6004820152602490fd5b3461018a575f36600319011261018a576040515f6001826001549261053584611502565b92838352602094856001821691825f146105cf575050600114610574575b5061056092500383611490565b6103426040519282849384528301906113a7565b84915060015f527fb10e2d527612073b26eecdfd717e6a320cf44b4afac2b0732d9fcbe2b7fa0cf6905f915b8583106105b7575050610560935082010185610553565b805483890185015287945086939092019181016105a0565b60ff19168582015261056095151560051b85010192508791506105539050565b3461018a575f36600319011261018a576007546040516001600160a01b039091168152602090f35b3461018a575f36600319011261018a5761062f61187e565b600780546001600160a01b031981169091555f906001600160a01b03167f8be0079c531659141344cd1fd0a4f28419497f9722a3daafe3b4186f6b6457e08280a3005b3461018a57602036600319011261018a576001600160a01b036106936113cc565b1680156106b0575f526003602052602060405f2054604051908152f35b6040516322718ad960e21b81525f6004820152602490fd5b3461018a57602036600319011261018a5760206106e6600435611844565b6040516001600160a01b039091168152f35b3461018a576103b1610709366113f8565b906040519261071784611475565b5f84526103ab8383836115dc565b3461018a5760a036600319011261018a5761073e6113cc565b6107466113e2565b6044356001600160401b03811161018a5761076590369060040161142d565b6064929192356001600160401b03811161018a5761078790369060040161142d565b9290916084356001600160401b03811161018a576107a990369060040161142d565b92909360027f9b779b17422d0df92223018b32b4d1fa46e071723d6817e2486d003becc55f0054146111145760027f9b779b17422d0df92223018b32b4d1fa46e071723d6817e2486d003becc55f005560ff60095416806110ff575b6110ed576001600160a01b038816156110db576001600160a01b038216156110db5782156110c95785156110b75783156110a557600854955f19871461043e576001870160085560405161085881611475565b5f808252888152600260205260409020546001600160a01b031680151590899082611072575b6001600160a01b038d165f818152600360209081526040808320805460010190558583526002909152812080546001600160a01b031916831790559091907fddf252ad1be2c89b69c2b068fc378daa952ba7f163c4a11628f55a4df523b3ef9080a461105a57893b610f09575b5090919293949596975061090036858a6114cc565b875f52600660205260405f20908051906001600160401b038211610cac57819061092a8454611502565b601f8111610ebc575b50602090601f8311600114610e54575f92610e49575b50508160011b915f199060031b1c19161790555b7ff8e1a15aba9398e019f0b49df1a4fde98ee17ae345cb5f6b5e2c27f5033e8ce76020604051898152a16040516109938161145a565b61099e36868b6114cc565b81526109ab3683856114cc565b60208201526001600160a01b03841660408201526109ca3687896114cc565b6060820152426080820152875f52600a60205260405f209080518051906001600160401b038211610cac578190610a018554611502565b601f8111610dfc575b50602090601f8311600114610d94575f92610d89575b50508160011b915f199060031b1c19161782555b60208101518051906001600160401b038211610cac578190610a596001860154611502565b601f8111610d39575b50602090601f8311600114610ccb575f92610cc0575b50508160011b915f199060031b1c19161760018301555b6002820160018060a01b036040830151166001600160601b0360a01b82541617905560608101518051906001600160401b038211610cac57610ad46003850154611502565b601f8111610c68575b50918a9795939160209c9795938d90601f8311600114610bc7576080610b8d989794847fdd29f41376226ea738063ceafafefcf173c107c15467c4b107a490ef6d02db409d9e9895610b7498956004955f92610bbc575b50508160011b915f199060031b1c19161760038501555b0151910155610b6760405198899860608a5260608a0191611772565b918783038e890152611772565b84810360408601526001600160a01b0390921697611772565b0390a360017f9b779b17422d0df92223018b32b4d1fa46e071723d6817e2486d003becc55f0055604051908152f35b015190505f80610b34565b90600385015f528e5f20915f5b601f1985168110610c4d5750610b8d9897946001857fdd29f41376226ea738063ceafafefcf173c107c15467c4b107a490ef6d02db409e9f999695600495608095610b749b98601f19811610610c35575b505050811b016003850155610b4b565b01515f1960f88460031b161c191690555f8080610c25565b8282015184558f9c5060019093019260209283019201610bd4565b600385015f5260205f20601f840160051c810160208510610ca5575b601f830160051c82018110610c9a575050610add565b5f8155600101610c84565b5080610c84565b634e487b7160e01b5f52604160045260245ffd5b015190508c80610a78565b9250600185015f5260205f20905f935b601f1984168510610d1e576001945083601f19811610610d06575b505050811b016001830155610a8f565b01515f1960f88460031b161c191690558c8080610cf6565b81810151835560209485019460019093019290910190610cdb565b909150600185015f5260205f20601f840160051c810160208510610d82575b90849392915b601f830160051c82018110610d74575050610a62565b5f8155859450600101610d5e565b5080610d58565b015190508c80610a20565b9250845f5260205f20905f935b601f1984168510610de1576001945083601f19811610610dc9575b505050811b018255610a34565b01515f1960f88460031b161c191690558c8080610dbc565b81810151835560209485019460019093019290910190610da1565b909150845f5260205f20601f840160051c810160208510610e42575b90849392915b601f830160051c82018110610e34575050610a0a565b5f8155859450600101610e1e565b5080610e18565b015190508b80610949565b9250835f5260205f20905f935b601f1984168510610ea1576001945083601f19811610610e89575b505050811b01905561095d565b01515f1960f88460031b161c191690558b8080610e7c565b81810151835560209485019460019093019290910190610e61565b909150835f5260205f20601f840160051c810160208510610f02575b90849392915b601f830160051c82018110610ef4575050610933565b5f8155859450600101610ede565b5080610ed8565b6020610f47918b8a5f604051809681958294630a85bd0160e11b845233600485015284602485015260448401526080606484015260848301906113a7565b03926001600160a01b03165af15f9181611015575b50610fc357893d15610fbb573d90610f73826114b1565b91610f816040519384611490565b82523d5f602084013e5b81519182610fb457604051633250574960e11b81526001600160a01b0383166004820152602490fd5b6020915001fd5b606090610f8b565b630a85bd0160e19a92939495969798999a1b9063ffffffff60e01b1603610ff357509087969594939291896108eb565b604051633250574960e11b81526001600160a01b039091166004820152602490fd5b9091506020813d602011611052575b8161103160209383611490565b8101031261018a57516001600160e01b03198116810361018a57908b610f5c565b3d9150611024565b6040516339e3563760e11b81525f6004820152602490fd5b5f82815260046020526040902080546001600160a01b0319169055805f52600360205260405f205f19815401905561087e565b604051632e56a66b60e11b8152600490fd5b60405163063ee91d60e41b8152600490fd5b60405163128e0ec160e11b8152600490fd5b60405163d92e233d60e01b8152600490fd5b6040516375ab03ab60e11b8152600490fd5b506007546001600160a01b0316331415610805565b604051633ee5aeb560e01b8152600490fd5b3461018a576103b1611137366113f8565b916115dc565b3461018a57604036600319011261018a576111566113cc565b60243561116281611844565b3315158061120b575b806111e2575b6111ca576001600160a01b039283169282918491167f8c5be1e5ebec7d5bd14f71427d1e84f3dd0314c0f7b2291e5b200ac8c7c3b9255f80a45f90815260046020526040902080546001600160a01b0319169091179055005b60405163a9fbf51f60e01b8152336004820152602490fd5b5060018060a01b0381165f52600560205260405f20335f5260205260ff60405f20541615611171565b506001600160a01b03811633141561116b565b3461018a57602036600319011261018a5760043561123b81611844565b505f526004602052602060018060a01b0360405f205416604051908152f35b3461018a575f36600319011261018a576040515f8054908261127b83611502565b91828252602093600190856001821691825f146105cf5750506001146112a8575061056092500383611490565b5f808052859250907f290decd9548b62a8d60345a988386fc84ba6bc95484008f6362f93160ef3e5635b8583106112e9575050610560935082010185610553565b805483890185015287945086939092019181016112d2565b3461018a57602036600319011261018a576004359063ffffffff60e01b821680920361018a57602091632483248360e11b8114908115611343575b5015158152f35b6380ac58cd60e01b811491508115611375575b8115611364575b508361133c565b6301ffc9a760e01b1490508361135d565b635b5e139f60e01b81149150611356565b5f5b8381106113975750505f910152565b8181015183820152602001611388565b906020916113c081518092818552858086019101611386565b601f01601f1916010190565b600435906001600160a01b038216820361018a57565b602435906001600160a01b038216820361018a57565b606090600319011261018a576001600160a01b0390600435828116810361018a5791602435908116810361018a579060443590565b9181601f8401121561018a578235916001600160401b03831161018a576020838186019501011161018a57565b60a081019081106001600160401b03821117610cac57604052565b602081019081106001600160401b03821117610cac57604052565b90601f801991011681019081106001600160401b03821117610cac57604052565b6001600160401b038111610cac57601f01601f191660200190565b9291926114d8826114b1565b916114e66040519384611490565b82948184528183011161018a578281602093845f960137010152565b90600182811c92168015611530575b602083101461151c57565b634e487b7160e01b5f52602260045260245ffd5b91607f1691611511565b9060405191825f825461154c81611502565b908184526020946001916001811690815f146115ba575060011461157c575b50505061157a92500383611490565b565b5f90815285812095935091905b8183106115a257505061157a93508201015f808061156b565b85548884018501529485019487945091830191611589565b9250505061157a94925060ff191682840152151560051b8201015f808061156b565b6001600160a01b03918216929091831561175a57815f52602092600284528260409583875f20541695331515806116c8575b5060029087611697575b825f5260038152885f2060018154019055835f5252865f20816001600160601b0360a01b825416179055857fddf252ad1be2c89b69c2b068fc378daa952ba7f163c4a11628f55a4df523b3ef5f80a416928383036116765750505050565b6064945051926364283d7b60e01b8452600484015260248301526044820152fd5b5f84815260046020526040812080546001600160a01b03191690558881526003825289902080545f19019055611618565b9192509080611719575b156116e0579084915f61160e565b8685876116fd576024915190637e27328960e01b82526004820152fd5b604491519063177e802f60e01b82523360048301526024820152fd5b50338614801561173e575b806116d25750845f52600481523384885f205416146116d2565b50855f5260058152865f20335f52815260ff875f205416611724565b604051633250574960e11b81525f6004820152602490fd5b908060209392818452848401375f828201840152601f01601f1916010190565b61179b81611844565b50604051906117a982611475565b5f8252805f526020600681526117c160405f2061153a565b92805193841561183c5780516117ff575050506117de9150611844565b505f6040516117ec81611475565b526040516117f981611475565b5f815290565b611839935084611819604051968794868087019101611386565b820161182d82518093868085019101611386565b01038084520182611490565b90565b935050505090565b5f818152600260205260409020546001600160a01b0316908115611866575090565b60249060405190637e27328960e01b82526004820152fd5b6007546001600160a01b0316330361189257565b60405163118cdaa760e01b8152336004820152602490fd5b9293909193843b6118bd575b5050505050565b604051630a85bd0160e11b8082526001600160a01b0395861660048301529385166024820152604481019190915260806064820152602095949093169392908590829081906119109060848301906113a7565b03815f885af15f91816119b4575b5061197d575050503d5f14611975573d91611938836114b1565b926119466040519485611490565b83523d5f8285013e5b8251928361197057604051633250574960e11b815260048101849052602490fd5b019050fd5b60609161194f565b9193506001600160e01b03199091160361199c57505f808080806118b6565b60249060405190633250574960e11b82526004820152fd5b9091508581813d83116119ed575b6119cc8183611490565b8101031261018a57516001600160e01b03198116810361018a57905f61191e565b503d6119c256fea2646970667358221220fa6b3f0f4711c37cf21d251f05dd2d93fb899a350c14443f59f3128b7945580864736f6c63430008180033",
  "linkReferences": {},
  "deployedLinkReferences": {}
}